:1000000016C1000045C1000043C1000041C100000D
:100010003FC100003DC100003BC1000039C10000EC
:1000200037C1000035C1000033C1000031C10000FC
:100030002FC100002DC100002BC1000029C100000C
:1000400027C1000025C1000023C1000021C100001C
:100050001FC100001DC100001BC100000C94050958
:1000600017C100000C94770C0C94AD0C11C100006A
:100070000FC100000DC100000BC1000009C100004C
:1000800007C1000005C1000003C1000001C100005C
:10009000FFC00000FDC00000FBC0000034C5000030
:1000A000F7C00000F5C00000F3C00000F1C0000080
:1000B000EFC00000EDC00000EBC00000E9C0000090
:1000C000E7C00000E5C00000E3C00000E1C00000A0
:1000D000DFC00000DDC00000DBC00000D9C00000B0
:1000E000D7C000005F0A620A510A550A5B0A990AE2
:1000F000660A6A0A700A740A780A7E0A820A860AFE
:10010000990A8C0A900A940A00000A0B02090C0D45
:100110000E080703040100000000000000000000BA
:1001200000000000000000000000000000000000CF
:10013000000000001211100000000000000000008C
:1001400000000000000000000000000000000102AC
:1001500010202008081020401020408002010201D9
:100160000804020101020408102040808040201091
:1001700008040201800402018040201008040201EA
:100180000804020101020408102040800102040852
:10019000102040800505050507050808080802022B
:1001A00002020A0A08080404040401010101010111
:1001B00001010303030303030303040707070C0CF4
:1001C0000C0C0C0C0C0C02020202060606060606BB
:1001D00006060B0B0B0B0B0B0B0B00002000230078
:1001E000260029002C002F0032000001000003012E
:1001F0000601090100002200250028002B002E0026
:100200003100340002010000050108010B0100006B
:100210002100240027002A002D00300033000101B6
:100220000000040107010A01D701E404DF0C1124D6
:100230001FBECFEFD1E2DEBFCDBF00E00CBF12E0AA
:10024000A0E0B2E0ECE9F2E200E00BBF02C00790F0
:100250000D92A23BB107D9F724E0A2EBB2E001C0B6
:100260001D92A334B207E1F712E0CEE2D2E000E043
:1002700006C022970109FE010BBF0E944411C8323B
:10028000D10780E00807A9F70E94F00E0C944C11EA
:10029000B7CE8F929F92AF92BF92CF92DF92EF92A2
:1002A000FF9260ED77E080E090E00E947E0960E0E0
:1002B00082EB92E088D24B015C0140E061E082EB8E
:1002C00092E022D26B017C01A5019401C501B40129
:1002D0000E94181181115DC0A7019601C701B601E6
:1002E0000E941811811155C041E060E084EC92E059
:1002F000B8D563E072E084EC92E00E94600D22E0E9
:1003000030E0B501A40184EC92E00E94ED0E6EE0B5
:1003100072E084EC92E00E94600D42E060E084ECC8
:1003200092E09FD561E172E084EC92E00E94600D62
:1003300022E030E0B701A60184EC92E00E94ED0ECD
:100340006FE172E084EC92E00E94600D43E060E0B7
:1003500084EC92E086D562E272E084EC92E00E9446
:10036000600D809100020E94220A4AE050E0BC0128
:1003700084EC92E00E940F0E64EF71E080E090E068
:10038000FF90EF90DF90CF90BF90AF909F908F90B5
:10039000B5C760E372E084EC92E0FF90EF90DF90ED
:1003A000CF90BF90AF909F908F900C946B0D8F92D9
:1003B000AF92CF92EF920F931F921F9283E08F9391
:1003C00087E0882E96E0A92E25E0C22E34E0E32EA9
:1003D00000E021E042E067E284EC92E07AD60F9000
:1003E0000F900F9026E046E162E082EB92E00F91E1
:1003F000EF90CF90AF908F9021C020E044E064E177
:1004000084EC92E0EAD661E084EC92E0ECD526E060
:1004100040E855E260E070E086EA93E00E94170C45
:1004200082EB92E02CD040E060E084EC92E019D5C1
:1004300060E572E084EC92E00C94600DDC011596AE
:100440006C93159716964C93169770E0FB01E25B40
:10045000FE4FE4911796EC931797FB01EC56FE4F75
:10046000649118966C93189740E85EE360E070E042
:100470001D964D935D936D937C9350970895CF9304
:10048000DF93EC0162E08D810E949A0A40E358EF0D
:100490006FEF7FEF49875A876B877C87DF91CF911A
:1004A0000895AF92BF92CF92DF92EF92FF920F9397
:1004B0001F93CF93DF93EC01AF80662311F0BA2C2A
:1004C00001C0B12CA885B0E0AA0FBB1FA652BE4F39
:1004D00040E050E0BA01FD0185919491FC018081DA
:1004E0008A218B1112C08A019B010F5F1F4F2F4F72
:1004F0003F4FCD84DE84EF84F8884C155D056E0592
:100500007F0538F4B901A801E6CF342F252FCB01A0
:1005100004C030E020E080E090E0632F722FDF9194
:10052000CF911F910F91FF90EF90DF90CF90BF90F0
:10053000AF900895CF92DF92EF92FF920F931F93A7
:10054000CF93DF93CDB7DEB7C054D1400FB6F89448
:10055000DEBF0FBECDBF8C01F62EA1D6F11016C0A6
:10056000F801C184D284E384F4849B01AC012C198A
:100570003D094E095F0969017A0130EDC31637E084
:10058000D306E104F10410F48189AEC0F80161875B
:100590007287838794871482138212821182108259
:1005A00061E085810E94D30A6AEF70E080E090E00C
:1005B000A5D661E0F8018581BDD760E0F8018581AD
:1005C000F2D764E170E080E090E098D6F89461E0C2
:1005D000F8018581E8D788E290E0C7D662E0F801AB
:1005E0008581A8D78AE090E0C0D660E0C80159DFD5
:1005F000672B682B692B39F061E0C80152DF672B4C
:10060000682B692B21F4F801118A78946CC06E0173
:10061000FFEBCF1AFEEFDF0A9E012F5F3F4F7901FC
:1006200060E0C8013EDFF7016083718382839383BA
:1006300061E0C80136DFF7016483758386839783A1
:10064000F8E0EF0EF11CEC14FD0451F778949E01D4
:100650002F5F3F4F790120E030E0F7014081518169
:100660006281738184819581A681B781411551058D
:1006700061057105B1F10097A105B10591F1F9018D
:10068000F595E795F595E795F595E795E00FF11F59
:10069000D080DD0C481759076A077B0710F0D0821D
:1006A00003C08D2D816080832F5F3F4FF8E0EF0EF8
:1006B000F11C2832310589F6F801248130E04081AF
:1006C000818190E0840F911D4281840F911D4381AF
:1006D000840F911D99272817390719F481E0818B20
:1006E00003C0F801118A80E0C05CDE4F0FB6F894B9
:1006F000DEBF0FBECDBFDF91CF911F910F91FF9055
:10070000EF90DF90CF900895CF92DF92EF92FF921B
:100710000F931F93CF93DF93EC01162F642F0ADF03
:10072000882309F443C08E818B3031F008F43EC039
:100730008551823040F03AC06A8170E080E090E0FC
:100740000E94FF0F24C00A81602F6F7770E080E065
:1007500090E00E94011020E030E040E853E40E9465
:10076000B5106B017C016B8170E080E090E00E942D
:1007700001109B01AC01C701B6010E94FE0E2DECD9
:100780003CEC4CEC5DE30E94B51007FD9058112342
:1007900089F026E636E646EE5FE30E94B51020E0DB
:1007A00030E040E052E40E94FE0E04C060E070E0E1
:1007B00080EC9FE7DF91CF911F910F91FF90EF9019
:1007C000DF90CF900895CF92DF92EF92FF92CF9378
:1007D000DF93EC0160E0AEDE882379F18E818B300F
:1007E00029F158F18551823040F5688170E080E050
:1007F00090E00E94FF0F20E030E040E853E40E94C8
:10080000B5106B017C01698170E080E090E00E948E
:1008100001109B01AC01C701B6010E94FE0E2DEC38
:100820003CEC4CEC5DE30E94B5100BC0688170E0BD
:1008300080E090E00E94FF0F04C060E070E080EC78
:100840009FE7DF91CF91FF90EF90DF90CF900895D9
:1008500080910D0390E020910E03821B9109089571
:1008600020910E0380910D03281750F4E22FF0E041
:10087000E15FFC4F808190E02F5F20930E0308958D
:100880008FEF9FEF0895E0910E0380910D03E8171D
:1008900030F4F0E0E15FFC4F808190E008958FEF4D
:1008A0009FEF08950895CF92DF92EF92FF920F93FA
:1008B0001F93CF93DF937C01CB018A012091E90242
:1008C000222389F0EB016B01C40ED51ECC15DD058A
:1008D00061F06991D701ED91FC910190F081E02DDB
:1008E000C7011995F3CF642FE5D0C801DF91CF91EF
:1008F0001F910F91FF90EF90DF90CF900895CF93CD
:10090000DF931F92CDB7DEB769832091E9022223DE
:10091000D1F02091EA02203240F021E030E0FC01E9
:100920003383228380E090E014C08091EB02E82FB3
:10093000F0E0E451FD4F998190838F5F8093EB024B
:100940008093EA0204C061E0CE010196B3D081E059
:1009500090E00F90DF91CF910895FC0113821282F5
:1009600048EE53E060E070E044835583668377830C
:1009700084E692E091838083089510920E03109292
:100980000D031092EB021092EA0221C081E08093E5
:10099000E90260930C031092EB021092EA020895B0
:1009A0000F93062F21E04091EA026CEE72E08091F5
:1009B0000C0329D01092EB021092EA021092E90285
:1009C0000F91089561E0ECCF8DED92E0C6CF1092CB
:1009D0009C0381E080939A031092990361E084E183
:1009E000E2D561E085E1DFD5E9EBF0E080818E7F43
:1009F000808380818D7F808388E48093B80085E444
:100A00008093BC0008950F93413208F04AC0909142
:100A10009C039111FCCF92E090939C0300939A0366
:100A20009FEF90932F031092740340937303FB0185
:100A300065E773E0DB019A2F961B941718F49191E8
:100A40009D93F9CF10929B0390919B03880F892B64
:100A500080939B0380919903813061F410929903F4
:100A600080919B038093BB008091BC0083FDF8CFF5
:100A700085EC01C085EE8093BC00222321F080919B
:100A80009C038230E1F380912F038F3F61F08091CE
:100A90002F03803251F080912F03803341F483E0A3
:100AA00007C081E005C080E003C082E001C084E0AF
:100AB0000F910895613298F420919C03243089F4B9
:100AC00060935103FC0183E593E0DC012A2F281B8E
:100AD000261718F421912D93F9CF80E0089581E035
:100AE000089582E0089585ED8093BC008091BC005C
:100AF00084FDFCCF10929C03089585EC8093BC008C
:100B000010929C0308951F920F920FB60F9211241A
:100B10000BB60F922F933F934F935F936F937F93F7
:100B20008F939F93AF93BF93EF93FF938091B900FF
:100B3000887F803609F49DC070F5883209F45CC066
:100B400090F4803109F455C038F4882309F4F3C0D7
:100B5000883009F44EC0F2C0883109F44DC08032AB
:100B600009F45EC0EBC0803409F469C050F48033EE
:100B700009F456C0883309F0E1C080932F03BDDF2C
:100B8000DDC0803509F44FC0883509F45DC0883474
:100B900009F0D4C0D2C0883909F4C3C0A8F488379A
:100BA00009F467C038F4883609F463C0803709F463
:100BB00060C0C4C0883809F4B4C0803909F45FC08B
:100BC000803809F0BBC05BC0803B09F482C038F4B8
:100BD000803A09F466C0883A09F47BC0AFC0803C13
:100BE00009F4A3C0883C09F4A0C0883B09F486C07E
:100BF000A5C080919B0310C09091740380917303F2
:100C0000981770F5E091740381E08E0F8093740360
:100C1000F0E0EB58FC4F80818093BB0085EC82C0F4
:100C200080932F038AC0E091740381E08E0F80933C
:100C300074038091BB00F0E0EB58FC4F80839091EF
:100C40007403809173036AC0E091740381E08E0F96
:100C5000809374038091BB00F0E0EB58FC4F8083DD
:100C600080919A03811169C081E08093990384EA9D
:100C70005DC083E080939C0310923003CFCF8091BE
:100C80003003803208F04DC0E091300381E08E0FD8
:100C9000809330038091BB00F0E0EF5CFC4F8083D9
:100CA000BDCF2BDF80913003803230F4E0913003F0
:100CB000F0E0EF5CFC4F10826091300370E0E09157
:100CC0009503F091960381E393E019951092300318
:100CD00035C084E080939C0310925203109251031C
:100CE000E0919703F0919803199580915103811138
:100CF00005C081E08093510310925303E0915203A9
:100D000081E08E0F80935203F0E0ED5AFC4F80811A
:100D10008093BB009091520380915103981708F47F
:100D20007DCF85E88093BC0009C085EC8093BC0032
:100D300010929C0303C010922F03D5DEFF91EF9118
:100D4000BF91AF919F918F917F916F915F914F91E3
:100D50003F912F910F900BBE0F900FBE0F901F90E1
:100D60001895FC0112828FEF8183108213820895FF
:100D7000FC018381882331F0611103C08FEF8183EF
:100D80000895118208958DED92E000DE8DED92E0E0
:100D900019DE91E0811190E0892F0895CF93DF93C0
:100DA000EC016A838DED92E0E8DD6A81CE01EBDF34
:100DB0008B83882321F08DED92E052DD88838B8137
:100DC00090E0DF91CF910895CF93DF93EC018B8179
:100DD000882391F089818095862388836A818DEDAF
:100DE00092E0D4DD68818DED92E089DD8DED92E0B9
:100DF000E9DD282F30E002C020E030E081E090E023
:100E0000232B11F080E090E0DF91CF9108950895B9
:100E10000895DC01ED91FC910284F385E02D41E021
:100E2000199581E090E00895FC011382128224E775
:100E300032E0318320830895DC01ED91FC91008440
:100E4000F185E02D6FEF1994DC01ED91FC910284A6
:100E5000F385E02D40E0199461E0F6DF80ED97E046
:100E600084C2CF93DF93CDB7DEB728970FB6F8943F
:100E7000DEBF0FBECDBF1D8220E42E8334E13F8351
:100E800034E5388719822A8320E12B8320E52C83DF
:100E9000FC012781421710F04FEF420FFC01308513
:100EA00050E0FE01E40FF51F303121F4243011F43D
:100EB000218101C02581260F2068622F28960FB658
:100EC000F894DEBF0FBECDBFDF91CF91BDCFFC0147
:100ED0006581262F246025836C60B6CFCF93DF9386
:100EE000EC01423018F08C8188608C834F836887D6
:100EF000222329F0413019F48C8184608C8364E6CC
:100F000070E080E090E0FAD16C8164FD2EC0E88151
:100F1000F9810284F385E02D42E063E0CE0119956A
:100F200084E991E122D2E881F9810284F385E02D00
:100F300042E063E0CE01199586E990E016D2E8819F
:100F4000F9810284F385E02D42E063E0CE0119953A
:100F500086E990E00AD2E881F9810284F385E02DE8
:100F600042E062E0CE01199511C06062CE016CDFF3
:100F700084E991E1FAD16C816062CE0165DF86E996
:100F800090E0F3D16C816062CE015EDF86E990E093
:100F9000ECD16C816062CE0157DF8CE390E0E5D14B
:100FA00084E08D83CE0193DFCE0156DF82E08E8315
:100FB00066E0CE0149DFCE01DF91CF913DCF21E048
:100FC00001C0220F6A95EAF7DC011C962C931C974E
:100FD0001A965C934E931997ED91FC910084F185DC
:100FE000E02D60E01994FC012485222391F0818595
:100FF0009285009719F4611105C006C0019721F48C
:10100000611102C0258701C015866585CF010E9646
:10101000DBCE08950F931F93CF93DF93EC018C01E8
:10102000025F1F4F6B85C801B9DE019751F461E083
:10103000C8019EDE1C8260E0C801C6DE81E090E04F
:1010400002C080E090E0DF91CF911F910F91089551
:101050008F92AF92CF92EF920F93CF93DF93CDB752
:10106000DEB7FC016387148615861286118681E03F
:10107000982F01C0990F4A95EAF7928B982F01C0DB
:10108000990F2A95EAF7938B982F01C0990F0A952B
:10109000EAF7948B982F01C0990FEA94EAF7958BA1
:1010A000982F01C0990FCA94EAF7968B982F01C028
:1010B000990FAA94EAF7978B01C0880F8A94EAF7F0
:1010C000808FDF91CF910F91EF90CF90AF908F9065
:1010D00008954F925F926F927F928F92AF92CF92CC
:1010E000EF920F931F93CF93DF9300D0CDB7DEB76E
:1010F0003C011B894C885D882B834A83698394DE7D
:1011000084E892E0F30191838083C3010E9629DE87
:101110002B814A816981C3019BDFA201612FC30139
:101120000F900F900F90DF91CF911F910F91EF9043
:10113000CF90AF908F907F906F905F904F903FCF08
:10114000FF920F931F93CF93DF93EC01F62E8C0148
:10115000025F1F4F6A896F29C80136DE6A89609570
:101160006F21C801DF91CF911F910F91FF902CCE7D
:1011700020E030E050E060FF05C0FC01E20FF31F0B
:101180007589572B66952F5F3F4F2430310599F7AE
:10119000413011F4FC014489FC016585652B642B09
:1011A000CFCF0F931F93CF93DF93EC01142F062F14
:1011B0000F70423011F440E009C070E084E0759592
:1011C00067958A95E1F7CE01D3DF412F602FCE01DD
:1011D000DF91CF911F910F91CBCF0F931F93CF939F
:1011E000DF9300D0CDB7DEB78C012B834A836983B0
:1011F00011DF2B814A816981C8010F900F900F90F8
:10120000DF91CF911F910F9169CE1F920F920FB670
:101210000F9211242F933F938F939F93AF93BF937C
:1012200080919E0390919F03A091A003B091A10390
:1012300030919D0323E0230F2D3720F40196A11D4B
:10124000B11D05C026E8230F0296A11DB11D2093F4
:101250009D0380939E0390939F03A093A003B0935C
:10126000A1038091A2039091A303A091A403B09144
:10127000A5030196A11DB11D8093A2039093A30322
:10128000A093A403B093A503BF91AF919F918F91B9
:101290003F912F910F900FBE0F901F9018952FB771
:1012A000F89460919E0370919F038091A0039091A8
:1012B000A1032FBF08953FB7F8948091A2039091A6
:1012C000A303A091A403B091A50326B5A89B05C0D4
:1012D0002F3F19F00196A11DB11D3FBF6627782F42
:1012E000892F9A2F620F711D811D911D42E0660F9B
:1012F000771F881F991F4A95D1F708958F929F9263
:10130000AF92BF92CF92DF92EF92FF926B017C017E
:10131000D2DF4B015C01C114D104E104F104E1F01E
:101320006BD5C9DF681979098A099B09683E734042
:101330008105910580F321E0C21AD108E108F10886
:1013400088EE880E83E0981EA11CB11CC114D10444
:10135000E104F10431F7DFCFFF90EF90DF90CF9001
:10136000BF90AF909F908F9008958230910538F094
:10137000880F991F880F991F05970197F1F7089516
:10138000789484B5826084BD84B5816084BD85B560
:10139000826085BD85B5816085BDEEE6F0E0808127
:1013A00081608083E1E8F0E0108280818260808348
:1013B000808181608083E0E8F0E0808181608083CB
:1013C000E1EBF0E0808184608083E0EBF0E08081FD
:1013D00081608083E1E9F0E08081826080838081A8
:1013E00081608083E0E9F0E0808181608083E1EAD0
:1013F000F0E0808182608083808181608083E0EA88
:10140000F0E0808181608083E1E2F1E080818260B0
:101410008083808181608083E0E2F1E0808181606F
:101420008083EAE7F0E0808184608083808182604D
:101430008083808181608083808180688083109236
:10144000C1000895863308F0865320917B00982FC1
:101450009870277F922B90937B00877020910202D7
:1014600090E4299F90011124822B80937C0080912D
:101470007A00806480937A0080917A0086FDFCCFA8
:10148000809178002091790090E0922B089590E06F
:10149000FC013197E231F10508F04BC0EE58FF4FE7
:1014A000EDC6809180008F7703C0809180008F7D92
:1014B00080938000089580918000877FF9CF84B564
:1014C0008F7702C084B58F7D84BD08958091B00070
:1014D0008F7703C08091B0008F7D8093B000089516
:1014E000809190008F7707C0809190008F7D03C01E
:1014F00080919000877F8093900008958091A00054
:101500008F7707C08091A0008F7D03C08091A000DD
:10151000877F8093A0000895809120018F7707C076
:10152000809120018F7D03C080912001877F80936F
:1015300020010895CF93DF9390E0FC01E25BFE4F22
:101540002491FC01EC56FE4F8491882349F190E0F0
:10155000880F991FFC01E25FFD4FA591B4918C505B
:101560009E4FFC01C591D4919FB7611108C0F894BA
:101570008C91209582238C93888182230AC06230CB
:1015800051F4F8948C91322F309583238C93888179
:10159000822B888304C0F8948C91822B8C939FBFFC
:1015A000DF91CF9108950F931F93CF93DF931F92F5
:1015B000CDB7DEB7282F30E0F901E85FFE4F849108
:1015C000F901E25BFE4F1491F901EC56FE4F0491D4
:1015D0000023C1F0882319F0698359DF6981E02F66
:1015E000F0E0EE0FFF1FEC50FE4FA591B4919FB7B6
:1015F000F8948C91611103C01095812301C0812B57
:101600008C939FBF0F90DF91CF911F910F91089501
:10161000FC01818D228D90E0805C9F4F821B91099F
:101620008F7399270895FC01918D828D981731F061
:10163000828DE80FF11D858D90E008958FEF9FEF6B
:101640000895FC01918D828D981761F0828DDF01E4
:10165000A80FB11D5D968C91928D9F5F9F73928FA5
:1016600090E008958FEF9FEF089586ED9CE0892B21
:1016700039F080E090E0892B19F098D1811125C0D4
:1016800080E090E0892B41F080E090E0892B21F010
:101690000E94000081111CC080E090E0892B41F085
:1016A00080E090E0892B21F00E940000811113C09E
:1016B00080E090E0892BA1F080E090E0892B81F020
:1016C0000E94000081110AC008950E940000D8CF36
:1016D0000E940000E1CF0E940000EACF0C940000BD
:1016E0000895FC01848DDF01A80FB11DA35ABF4FDF
:1016F0002C91848D90E001968F739927848FA68911
:10170000B7892C93A089B1898C9180648C93938D37
:10171000848D981306C00288F389E02D80818F7D27
:1017200080830895CF93DF93EC01888D8823C1F0E7
:10173000EA89FB89808185FD05C0A889B9898C91DA
:1017400086FD0EC00FB607FCF5CF808185FFF2CF76
:10175000A889B9898C9185FFEDCFCE01C2DFE8CF92
:10176000DF91CF910895CF92DF92FF920F931F9355
:10177000CF93DF931F92CDB7DEB76C0181E0D60126
:1017800058968C9358975B969C915B975C968C913E
:101790005C97981307C05096ED91FC91519780810A
:1017A00085FD2DC0F601038D10E00F5F1F4F0F73F5
:1017B0001127F02EF601848DF81210C00FB607FC29
:1017C000F9CFD6015096ED91FC915197808185FF1C
:1017D000F1CFC601698385DF6981ECCF838DE80F86
:1017E000F11DE35AFF4F6083D6015B960C935B9724
:1017F0005296ED91FC915397808180620CC0D60186
:101800005696ED91FC91579760835096ED91FC911F
:10181000519780818064808381E090E00F90DF9118
:10182000CF911F910F91FF90DF90CF900895BF92BD
:10183000CF92DF92EF92FF92CF93DF93EC016A0198
:101840007B01B22EE889F98982E08083411581EE1F
:1018500058076105710599F060E079E08DE390E04B
:10186000A7019601E9D42150310941095109569542
:10187000479537952795211580E1380790F0E8893D
:10188000F989108260E874E88EE190E0A701960182
:10189000D3D42150310941095109569547953795BF
:1018A0002795EC85FD853083EE85FF852083188E96
:1018B000EC89FD89B082EA89FB898081806180831F
:1018C000EA89FB89808188608083EA89FB8980813D
:1018D00080688083EA89FB8980818F7D8083DF91A6
:1018E000CF91FF90EF90DF90CF90BF9008951F921F
:1018F0000F920FB60F9211240BB60F922F938F9366
:101900009F93EF93FF93E091B603F091B70380812B
:10191000E091BC03F091BD0382FD12C090818091E3
:10192000BF038F5F8F732091C003821751F0E09146
:10193000BF03F0E0EA55FC4F958F8093BF0301C0D1
:101940008081FF91EF919F918F912F910F900BBE0E
:101950000F900FBE0F901F9018951F920F920FB609
:101960000F9211240BB60F922F933F934F935F93D7
:101970006F937F938F939F93AF93BF93EF93FF9357
:1019800086EA93E0AEDEFF91EF91BF91AF919F9118
:101990008F917F916F915F914F913F912F910F9018
:1019A0000BBE0F900FBE0F901F90189586EA93E024
:1019B0002FDE21E0892B09F420E0822F0895109278
:1019C000A9031092A80388EE93E0A0E0B0E0809312
:1019D000AA039093AB03A093AC03B093AD0384E947
:1019E00092E09093A7038093A60385EC90E09093F8
:1019F000B3038093B20384EC90E09093B50380939B
:101A0000B40380EC90E09093B7038093B60381EC2D
:101A100090E09093B9038093B80382EC90E09093A8
:101A2000BB038093BA0386EC90E09093BD03809350
:101A3000BC031092BF031092C0031092C103109216
:101A4000C2030895CF92DF92EF92FF920F931F93FC
:101A5000CF93DF937C016A01EB0100E010E00C15ED
:101A60001D0571F06991D701ED91FC910190F08114
:101A7000E02DC7011995892B19F00F5F1F4FEFCF8C
:101A8000C801DF91CF911F910F91FF90EF90DF90F0
:101A9000CF9008956115710581F0DB010D90002054
:101AA000E9F7AD0141505109461B570BDC01ED919F
:101AB000FC910280F381E02D199480E090E008957C
:101AC000E9CFDC01ED91FC910190F081E02D1994BA
:101AD00060EA72E0DFCF0F931F93CF93DF93EC01A7
:101AE000D9DF8C01CE01F4DF800F911FDF91CF9100
:101AF0001F910F9108958F929F92AF92BF92DF92A4
:101B0000EF92FF920F931F93CF93DF93CDB7DEB782
:101B1000A1970FB6F894DEBF0FBECDBF7C01F42FA6
:101B2000D52ECB0119A2223008F42AE08E010F5DD8
:101B30001F4F822E912CA12CB12C6F2F7D2DA50132
:101B400094017AD3F22FD32ECA01015011096A30C1
:101B500014F4E0E301C0E7E3E60FD801EC93232B94
:101B6000242B252B51F7B801C70194DFA1960FB69E
:101B7000F894DEBF0FBECDBFDF91CF911F910F91C3
:101B8000FF90EF90DF90BF90AF909F908F9008955F
:101B9000CF92DF92EF92FF920F931F93CF93DF9339
:101BA000EC016A017B012115310579F4E881F981A5
:101BB0000190F081E02D642FDF91CF911F910F9163
:101BC000FF90EF90DF90CF9019942A303105D9F42F
:101BD00077FF18C06DE275DF8C0144275527BA01E5
:101BE0004C195D096E097F092AE0CE0184DF800F60
:101BF000911FDF91CF911F910F91FF90EF90DF9098
:101C0000CF9008952AE0B701A601CE01DF91CF91D0
:101C10001F910F91FF90EF90DF90CF906CCF9A01C2
:101C2000AB01662757FD6095762FB2CF4F925F923A
:101C30006F927F928F929F92AF92BF92CF92DF92DC
:101C4000EF92FF920F931F93CF93DF93EC016A0102
:101C50007B01B22E9A01AB01C701B601E9D28823FC
:101C600019F063EA72E024C026013701E89477F89E
:101C70002FEF3FEF4FE75FE7C301B201D9D28111E8
:101C80000CC02FEF3FEF4FE75FE7C301B2011AD15E
:101C900018161CF467EA72E00BC02FEF3FEF4FE716
:101CA0005FE4C701B6015DD21816A4F46BEA72E0D6
:101CB000CE01DF91CF911F910F91FF90EF90DF90B8
:101CC000CF90BF90AF909F908F907F906F905F90DC
:101CD0004F90E0CE2FEF3FEF4FE75FECC701B6012B
:101CE000F1D087FDE3CF20E030E0A901C701B601C4
:101CF000E9D087FF09C06DE2CE01E3DE8C01F7FA7F
:101D0000F094F7F8F09402C000E010E0A12C60E03D
:101D100070E080E09FE3AB1439F020E030E040E277
:101D200051E4D4D0A394F7CF9B01AC01C701B60115
:101D300065D06B017C0137D12B013C0160D19B0147
:101D4000AC01C701B60159D06B017C012AE0B30197
:101D5000A201CE01D0DE080F191FBB2031F06FEABF
:101D600072E0CE0197DE080F191F7B2C772019F146
:101D700020E030E040E251E4C701B601F6D16B014A
:101D80007C010CD14B01AA2497FCA094BA2C2AE028
:101D900030E0B501A401CE01FBDE080F191FC5011B
:101DA000B4012FD19B01AC01C701B60126D06B0154
:101DB0007C017A94DBCFC801DF91CF911F910F9105
:101DC000FF90EF90DF90CF90BF90AF909F908F905B
:101DD0007F906F905F904F90089528CF59D20895CB
:101DE000CFDAFDDF0E94FD01C5E3DBE00E9449017F
:101DF0002097E1F33ADCFACF08955058BB27AA2781
:101E00000ED075C166D130F06BD120F031F49F3F18
:101E100011F41EF45BC10EF4E095E7FB51C1E92F0C
:101E200077D180F3BA17620773078407950718F014
:101E300071F49EF58FC10EF4E0950B2EBA2FA02DF4
:101E40000B01B90190010C01CA01A0011124FF2767
:101E5000591B99F0593F50F4503E68F11A16F04062
:101E6000A22F232F342F4427585FF3CF4695379561
:101E70002795A795F0405395C9F77EF41F16BA0B26
:101E8000620B730B840BBAF09150A1F0FF0FBB1FD4
:101E9000661F771F881FC2F70EC0BA0F621F731F1D
:101EA000841F48F4879577956795B795F7959E3F7A
:101EB00008F0B3CF9395880F08F09927EE0F979508
:101EC00087950895D9D008F481E008950CD00FC10A
:101ED00007D140F0FED030F021F45F3F19F0F0C0A0
:101EE000511139C1F3C014D198F39923C9F3552383
:101EF000B1F3951B550BBB27AA27621773078407FD
:101F000038F09F5F5F4F220F331F441FAA1FA9F3B2
:101F100033D00E2E3AF0E0E830D091505040E695A4
:101F2000001CCAF729D0FE2F27D0660F771F881F05
:101F3000BB1F261737074807AB07B0E809F0BB0BF4
:101F4000802DBF01FF2793585F4F2AF09E3F510518
:101F500068F0B6C000C15F3FECF3983EDCF38695B5
:101F600077956795B795F7959F5FC9F7880F911D8E
:101F70009695879597F90895E1E0660F771F881F7A
:101F8000BB1F621773078407BA0720F0621B730B2D
:101F9000840BBA0BEE1F88F7E095089504D068947F
:101FA000B111D9C00895BCD088F09F5790F0B92FD7
:101FB0009927B751A0F0D1F0660F771F881F991F9E
:101FC0001AF0BA95C9F712C0B13081F0C3D0B1E0B0
:101FD0000895C0C0672F782F8827B85F39F0B93FC0
:101FE000CCF3869577956795B395D9F73EF49095A0
:101FF0008095709561957F4F8F4F9F4F0895E8941E
:1020000009C097FB3EF490958095709561957F4F40
:102010008F4F9F4F9923A9F0F92F96E9BB279395EE
:10202000F695879577956795B795F111F8CFFAF4FE
:10203000BB0F11F460FF1BC06F5F7F4F8F4F9F4F2F
:1020400016C0882311F096E911C0772321F09EE88D
:10205000872F762F05C0662371F096E8862F70E0F3
:1020600060E02AF09A95660F771F881FDAF7880FCD
:102070009695879597F90895990F0008550FAA0B23
:10208000E0E8FEEF16161706E807F907C0F012168B
:102090001306E407F50798F0621B730B840B950B8E
:1020A00039F40A2661F0232B242B252B21F40895E3
:1020B0000A2609F4A140A6958FEF811D811D089580
:1020C00097F99F6780E870E060E008959FEF80ECEB
:1020D000089500240A94161617061806090608958E
:1020E00000240A9412161306140605060895092EF4
:1020F0000394000C11F4882352F0BB0F40F4BF2B63
:1021000011F460FF04C06F5F7F4F8F4F9F4F0895A2
:1021100057FD9058440F551F59F05F3F71F0479598
:10212000880F97FB991F61F09F3F79F0879508957D
:10213000121613061406551FF2CF4695F1DF08C09C
:10214000161617061806991FF1CF869571056105B9
:1021500008940895E894BB2766277727CB0197F961
:1021600008958ADF08F48FEF08950BD0C0CFB1DF58
:1021700028F0B6DF18F0952309F0A2CFA7CF1124DD
:10218000EACFC6DFA0F3959FD1F3950F50E0551F1E
:10219000629FF001729FBB27F00DB11D639FAA27BC
:1021A000F00DB11DAA1F649F6627B00DA11D661F0B
:1021B000829F2227B00DA11D621F739FB00DA11D2C
:1021C000621F839FA00D611D221F749F3327A00DE6
:1021D000611D231F849F600D211D822F762F6A2F82
:1021E00011249F5750408AF0E1F088234AF0EE0F07
:1021F000FF1FBB1F661F771F881F91505040A9F714
:102200009E3F510570F05CCFA6CF5F3FECF3983E48
:10221000DCF3869577956795B795F795E7959F5F7A
:10222000C1F7FE2B880F911D9695879597F9089514
:1022300023DF880B990B0895A1E21A2EAA1BBB1B62
:10224000FD010DC0AA1FBB1FEE1FFF1FA217B30782
:10225000E407F50720F0A21BB30BE40BF50B661F98
:10226000771F881F991F1A9469F76095709580955C
:1022700090959B01AC01BD01CF010895EE0FFF1FAA
:102280000590F491E02D19940790F691E02D1994A2
:0C22900081E090E0F89400C0F894FFCFCB
:10229C0036000148756D69646974793A200020250F
:1022AC000054656D70657261747572653A2000201A
:1022BC0046004F7574707574204C6576656C3A00E9
:1022CC004661696C656420746F2072656164206678
:1022DC00726F6D204448542073656E736F722100C9
:1022EC004E6562756C61776F726B7332303136008C
:1022FC00000000007F0453042804300443045204FB
:10230C00000000000907220D6E0707070807EE0EF4
:10231C00000000000907220DED08DF07F307D108C4
:10232C0000000000B30B220D080B210B130B920BBA
:10233C000D0A006E616E00696E66006F7666002E87
:02234C0000008F
:00000001FF
